{
  "_format": "hh-sol-artifact-1",
  "contractName": "VotingSystem",
  "sourceName": "contracts/VotingSystem.sol",
  "abi": [
    {
      "inputs": [],
      "stateMutability": "nonpayable",
      "type": "constructor"
    },
    {
      "anonymous": false,
      "inputs": [
        {
          "indexed": true,
          "internalType": "uint256",
          "name": "candidateId",
          "type": "uint256"
        },
        {
          "indexed": false,
          "internalType": "string",
          "name": "name",
          "type": "string"
        },
        {
          "indexed": false,
          "internalType": "string",
          "name": "party",
          "type": "string"
        },
        {
          "indexed": false,
          "internalType": "string",
          "name": "description",
          "type": "string"
        }
      ],
      "name": "CandidateRegistered",
      "type": "event"
    },
    {
      "anonymous": false,
      "inputs": [
        {
          "indexed": false,
          "internalType": "uint256",
          "name": "timestamp",
          "type": "uint256"
        }
      ],
      "name": "ElectionEnded",
      "type": "event"
    },
    {
      "anonymous": false,
      "inputs": [
        {
          "indexed": false,
          "internalType": "uint256",
          "name": "timestamp",
          "type": "uint256"
        }
      ],
      "name": "ElectionStarted",
      "type": "event"
    },
    {
      "anonymous": false,
      "inputs": [
        {
          "indexed": true,
          "internalType": "address",
          "name": "voter",
          "type": "address"
        },
        {
          "indexed": true,
          "internalType": "uint256",
          "name": "candidateId",
          "type": "uint256"
        },
        {
          "indexed": false,
          "internalType": "uint256",
          "name": "timestamp",
          "type": "uint256"
        }
      ],
      "name": "VoteCasted",
      "type": "event"
    },
    {
      "anonymous": false,
      "inputs": [
        {
          "indexed": true,
          "internalType": "address",
          "name": "voter",
          "type": "address"
        }
      ],
      "name": "VoterAuthorized",
      "type": "event"
    },
    {
      "inputs": [
        {
          "internalType": "address",
          "name": "voterAddr",
          "type": "address"
        }
      ],
      "name": "authorizeVoter",
      "outputs": [],
      "stateMutability": "nonpayable",
      "type": "function"
    },
    {
      "inputs": [],
      "name": "candidateCount",
      "outputs": [
        {
          "internalType": "uint256",
          "name": "",
          "type": "uint256"
        }
      ],
      "stateMutability": "view",
      "type": "function"
    },
    {
      "inputs": [
        {
          "internalType": "uint256",
          "name": "",
          "type": "uint256"
        }
      ],
      "name": "candidateIds",
      "outputs": [
        {
          "internalType": "uint256",
          "name": "",
          "type": "uint256"
        }
      ],
      "stateMutability": "view",
      "type": "function"
    },
    {
      "inputs": [
        {
          "internalType": "uint256",
          "name": "",
          "type": "uint256"
        }
      ],
      "name": "candidates",
      "outputs": [
        {
          "internalType": "uint256",
          "name": "id",
          "type": "uint256"
        },
        {
          "internalType": "string",
          "name": "name",
          "type": "string"
        },
        {
          "internalType": "string",
          "name": "party",
          "type": "string"
        },
        {
          "internalType": "string",
          "name": "description",
          "type": "string"
        },
        {
          "internalType": "uint256",
          "name": "voteCount",
          "type": "uint256"
        }
      ],
      "stateMutability": "view",
      "type": "function"
    },
    {
      "inputs": [],
      "name": "electionState",
      "outputs": [
        {
          "internalType": "enum VotingSystem.ElectionState",
          "name": "",
          "type": "uint8"
        }
      ],
      "stateMutability": "view",
      "type": "function"
    },
    {
      "inputs": [],
      "name": "endElection",
      "outputs": [],
      "stateMutability": "nonpayable",
      "type": "function"
    },
    {
      "inputs": [],
      "name": "getAllCandidateIds",
      "outputs": [
        {
          "internalType": "uint256[]",
          "name": "",
          "type": "uint256[]"
        }
      ],
      "stateMutability": "view",
      "type": "function"
    },
    {
      "inputs": [
        {
          "internalType": "uint256",
          "name": "id",
          "type": "uint256"
        }
      ],
      "name": "getCandidate",
      "outputs": [
        {
          "components": [
            {
              "internalType": "uint256",
              "name": "id",
              "type": "uint256"
            },
            {
              "internalType": "string",
              "name": "name",
              "type": "string"
            },
            {
              "internalType": "string",
              "name": "party",
              "type": "string"
            },
            {
              "internalType": "string",
              "name": "description",
              "type": "string"
            },
            {
              "internalType": "uint256",
              "name": "voteCount",
              "type": "uint256"
            }
          ],
          "internalType": "struct VotingSystem.Candidate",
          "name": "",
          "type": "tuple"
        }
      ],
      "stateMutability": "view",
      "type": "function"
    },
    {
      "inputs": [],
      "name": "getElectionStatus",
      "outputs": [
        {
          "internalType": "enum VotingSystem.ElectionState",
          "name": "status",
          "type": "uint8"
        },
        {
          "internalType": "uint256",
          "name": "totalCandidates",
          "type": "uint256"
        },
        {
          "internalType": "uint256",
          "name": "totalVotes_",
          "type": "uint256"
        },
        {
          "internalType": "uint256",
          "name": "totalVoters",
          "type": "uint256"
        }
      ],
      "stateMutability": "view",
      "type": "function"
    },
    {
      "inputs": [],
      "name": "getMyVote",
      "outputs": [
        {
          "internalType": "bool",
          "name": "hasVoted",
          "type": "bool"
        },
        {
          "internalType": "uint256",
          "name": "candidateId",
          "type": "uint256"
        },
        {
          "internalType": "string",
          "name": "name",
          "type": "string"
        },
        {
          "internalType": "string",
          "name": "party",
          "type": "string"
        },
        {
          "internalType": "uint256",
          "name": "timestamp",
          "type": "uint256"
        }
      ],
      "stateMutability": "view",
      "type": "function"
    },
    {
      "inputs": [],
      "name": "getResults",
      "outputs": [
        {
          "internalType": "uint256[]",
          "name": "",
          "type": "uint256[]"
        },
        {
          "internalType": "uint256[]",
          "name": "",
          "type": "uint256[]"
        },
        {
          "internalType": "uint256",
          "name": "",
          "type": "uint256"
        }
      ],
      "stateMutability": "view",
      "type": "function"
    },
    {
      "inputs": [
        {
          "internalType": "address",
          "name": "voterAddr",
          "type": "address"
        }
      ],
      "name": "getVoterInfo",
      "outputs": [
        {
          "components": [
            {
              "internalType": "bool",
              "name": "isRegistered",
              "type": "bool"
            },
            {
              "internalType": "bool",
              "name": "hasVoted",
              "type": "bool"
            },
            {
              "internalType": "uint256",
              "name": "votedCandidateId",
              "type": "uint256"
            },
            {
              "internalType": "uint256",
              "name": "timestamp",
              "type": "uint256"
            }
          ],
          "internalType": "struct VotingSystem.Voter",
          "name": "",
          "type": "tuple"
        }
      ],
      "stateMutability": "view",
      "type": "function"
    },
    {
      "inputs": [],
      "name": "getWinner",
      "outputs": [
        {
          "components": [
            {
              "internalType": "uint256",
              "name": "id",
              "type": "uint256"
            },
            {
              "internalType": "string",
              "name": "name",
              "type": "string"
            },
            {
              "internalType": "string",
              "name": "party",
              "type": "string"
            },
            {
              "internalType": "string",
              "name": "description",
              "type": "string"
            },
            {
              "internalType": "uint256",
              "name": "voteCount",
              "type": "uint256"
            }
          ],
          "internalType": "struct VotingSystem.Candidate",
          "name": "",
          "type": "tuple"
        }
      ],
      "stateMutability": "view",
      "type": "function"
    },
    {
      "inputs": [],
      "name": "owner",
      "outputs": [
        {
          "internalType": "address",
          "name": "",
          "type": "address"
        }
      ],
      "stateMutability": "view",
      "type": "function"
    },
    {
      "inputs": [
        {
          "internalType": "string",
          "name": "name",
          "type": "string"
        },
        {
          "internalType": "string",
          "name": "party",
          "type": "string"
        },
        {
          "internalType": "string",
          "name": "description",
          "type": "string"
        }
      ],
      "name": "registerCandidate",
      "outputs": [],
      "stateMutability": "nonpayable",
      "type": "function"
    },
    {
      "inputs": [],
      "name": "startElection",
      "outputs": [],
      "stateMutability": "nonpayable",
      "type": "function"
    },
    {
      "inputs": [],
      "name": "totalVotes",
      "outputs": [
        {
          "internalType": "uint256",
          "name": "",
          "type": "uint256"
        }
      ],
      "stateMutability": "view",
      "type": "function"
    },
    {
      "inputs": [
        {
          "internalType": "address",
          "name": "newOwner",
          "type": "address"
        }
      ],
      "name": "transferOwnership",
      "outputs": [],
      "stateMutability": "nonpayable",
      "type": "function"
    },
    {
      "inputs": [
        {
          "internalType": "uint256",
          "name": "candidateId",
          "type": "uint256"
        }
      ],
      "name": "vote",
      "outputs": [],
      "stateMutability": "nonpayable",
      "type": "function"
    },
    {
      "inputs": [
        {
          "internalType": "uint256",
          "name": "",
          "type": "uint256"
        }
      ],
      "name": "voterList",
      "outputs": [
        {
          "internalType": "address",
          "name": "",
          "type": "address"
        }
      ],
      "stateMutability": "view",
      "type": "function"
    },
    {
      "inputs": [
        {
          "internalType": "address",
          "name": "",
          "type": "address"
        }
      ],
      "name": "voters",
      "outputs": [
        {
          "internalType": "bool",
          "name": "isRegistered",
          "type": "bool"
        },
        {
          "internalType": "bool",
          "name": "hasVoted",
          "type": "bool"
        },
        {
          "internalType": "uint256",
          "name": "votedCandidateId",
          "type": "uint256"
        },
        {
          "internalType": "uint256",
          "name": "timestamp",
          "type": "uint256"
        }
      ],
      "stateMutability": "view",
      "type": "function"
    }
  ],
  "bytecode": "0x6080604052348015600f57600080fd5b50336000806101000a81548173ffffffffffffffffffffffffffffffffffffffff021916908373ffffffffffffffffffffffffffffffffffffffff16021790555060008060146101000a81548160ff021916908360028111156072576071607b565b5b021790555060aa565b7f4e487b7100000000000000000000000000000000000000000000000000000000600052602160045260246000fd5b612ecf806100b96000396000f3fe608060405234801561001057600080fd5b50600436106101375760003560e01c806350e2e8af116100b85780638e7ea5b21161007c5780638e7ea5b2146103275780639ed1f25514610345578063a3ec138d14610375578063a9a981a3146103a8578063f2fde38b146103c6578063fd47b368146103e257610137565b806350e2e8af146102a357806359f78468146102d357806362d73eb8146102dd5780638cb647d3146102e75780638da5cb5b1461030957610137565b80633477ee2e116100ff5780633477ee2e146101e557806335b8e8201461021957806335c3c876146102495780633e26a9b5146102655780634717f97c1461028357610137565b80630121b93f1461013c57806303016130146101585780630d15fd7714610188578063122902a6146101a65780632280043d146101c7575b600080fd5b61015660048036038101906101519190611e19565b6103fe565b005b610172600480360381019061016d9190611e19565b6106b7565b60405161017f9190611e55565b60405180910390f35b6101906106db565b60405161019d9190611e55565b60405180910390f35b6101ae6106e1565b6040516101be9493929190611ee7565b60405180910390f35b6101cf610711565b6040516101dc9190611f2c565b60405180910390f35b6101ff60048036038101906101fa9190611e19565b610724565b604051610210959493929190611fd7565b60405180910390f35b610233600480360381019061022e9190611e19565b6108f2565b604051610240919061211c565b60405180910390f35b610263600480360381019061025e9190612273565b610b3a565b005b61026d610d5c565b60405161027a91906123c9565b60405180910390f35b61028b610db4565b60405161029a939291906123eb565b60405180910390f35b6102bd60048036038101906102b89190611e19565b610f50565b6040516102ca9190612471565b60405180910390f35b6102db610f8f565b005b6102e56110f7565b005b6102ef6112a4565b6040516103009594939291906124a7565b60405180910390f35b61031161162d565b60405161031e9190612471565b60405180910390f35b61032f611651565b60405161033c919061211c565b60405180910390f35b61035f600480360381019061035a9190612534565b61191f565b60405161036c91906125c5565b60405180910390f35b61038f600480360381019061038a9190612534565b6119c2565b60405161039f94939291906125e0565b60405180910390f35b6103b0611a0c565b6040516103bd9190611e55565b60405180910390f35b6103e060048036038101906103db9190612534565b611a12565b005b6103fc60048036038101906103f79190612534565b611b52565b005b600260003373ffffffffffffffffffffffffffffffffffffffff1673ffffffffffffffffffffffffffffffffffffffff16815260200190815260200160002060000160009054906101000a900460ff1661048d576040517f08c379a000000000000000000000000000000000000000000000000000000000815260040161048490612671565b60405180910390fd5b600160028111156104a1576104a0611e70565b5b600060149054906101000a900460ff1660028111156104c3576104c2611e70565b5b14610503576040517f08c379a00000000000000000000000000000000000000000000000000000000081526004016104fa906126dd565b60405180910390fd5b6000600260003373ffffffffffffffffffffffffffffffffffffffff1673ffffffffffffffffffffffffffffffffffffffff16815260200190815260200160002090508060000160019054906101000a900460ff1615610598576040517f08c379a000000000000000000000000000000000000000000000000000000000815260040161058f90612749565b60405180910390fd5b60006001600084815260200190815260200160002060000154036105f1576040517f08c379a00000000000000000000000000000000000000000000000000000000081526004016105e8906127b5565b60405180910390fd5b60018160000160016101000a81548160ff02191690831515021790555081816001018190555042816002018190555060016000838152602001908152602001600020600401600081548092919061064790612804565b91905055506004600081548092919061065f90612804565b9190505550813373ffffffffffffffffffffffffffffffffffffffff167fcb87df07b1c304492bd875a5c8b98672eca500939412809ea229afef1d745188426040516106ab9190611e55565b60405180910390a35050565b600581815481106106c757600080fd5b906000526020600020016000915090505481565b60045481565b600080600080600060149054906101000a900460ff16600354600454600680549050935093509350935090919293565b600060149054906101000a900460ff1681565b600160205280600052604060002060009150905080600001549080600101805461074d9061287b565b80601f01602080910402602001604051908101604052809291908181526020018280546107799061287b565b80156107c65780601f1061079b576101008083540402835291602001916107c6565b820191906000526020600020905b8154815290600101906020018083116107a957829003601f168201915b5050505050908060020180546107db9061287b565b80601f01602080910402602001604051908101604052809291908181526020018280546108079061287b565b80156108545780601f1061082957610100808354040283529160200191610854565b820191906000526020600020905b81548152906001019060200180831161083757829003601f168201915b5050505050908060030180546108699061287b565b80601f01602080910402602001604051908101604052809291908181526020018280546108959061287b565b80156108e25780601f106108b7576101008083540402835291602001916108e2565b820191906000526020600020905b8154815290600101906020018083116108c557829003601f168201915b5050505050908060040154905085565b6108fa611d74565b60008211801561090c57506003548211155b61094b576040517f08c379a0000000000000000000000000000000000000000000000000000000008152600401610942906127b5565b60405180910390fd5b600160008381526020019081526020016000206040518060a0016040529081600082015481526020016001820180546109839061287b565b80601f01602080910402602001604051908101604052809291908181526020018280546109af9061287b565b80156109fc5780601f106109d1576101008083540402835291602001916109fc565b820191906000526020600020905b8154815290600101906020018083116109df57829003601f168201915b50505050508152602001600282018054610a159061287b565b80601f0160208091040260200160405190810160405280929190818152602001828054610a419061287b565b8015610a8e5780601f10610a6357610100808354040283529160200191610a8e565b820191906000526020600020905b815481529060010190602001808311610a7157829003601f168201915b50505050508152602001600382018054610aa79061287b565b80601f0160208091040260200160405190810160405280929190818152602001828054610ad39061287b565b8015610b205780601f10610af557610100808354040283529160200191610b20565b820191906000526020600020905b815481529060010190602001808311610b0357829003601f168201915b505050505081526020016004820154815250509050919050565b60008054906101000a900473ffffffffffffffffffffffffffffffffffffffff1673ffffffffffffffffffffffffffffffffffffffff163373ffffffffffffffffffffffffffffffffffffffff1614610bc8576040517f08c379a0000000000000000000000000000000000000000000000000000000008152600401610bbf906128f8565b60405180910390fd5b60006002811115610bdc57610bdb611e70565b5b600060149054906101000a900460ff166002811115610bfe57610bfd611e70565b5b14610c3e576040517f08c379a0000000000000000000000000000000000000000000000000000000008152600401610c3590612964565b60405180910390fd5b60036000815480929190610c5190612804565b91905055506040518060a0016040528060035481526020018481526020018381526020018281526020016000815250600160006003548152602001908152602001600020600082015181600001556020820151816001019081610cb49190612b30565b506040820151816002019081610cca9190612b30565b506060820151816003019081610ce09190612b30565b5060808201518160040155905050600560035490806001815401808255809150506001900390600052602060002001600090919091909150556003547fb76aadacec2d73468ab4c03b3976f369439578b697493e0b3596ae94726d8404848484604051610d4f93929190612c02565b60405180910390a2505050565b60606005805480602002602001604051908101604052809291908181526020018280548015610daa57602002820191906000526020600020905b815481526020019060010190808311610d96575b5050505050905090565b6060806000600280811115610dcc57610dcb611e70565b5b600060149054906101000a900460ff166002811115610dee57610ded611e70565b5b14610e2e576040517f08c379a0000000000000000000000000000000000000000000000000000000008152600401610e2590612c9a565b60405180910390fd5b600060035467ffffffffffffffff811115610e4c57610e4b612148565b5b604051908082528060200260200182016040528015610e7a5781602001602082028036833780820191505090505b50905060005b600354811015610eeb576001600060058381548110610ea257610ea1612cba565b5b9060005260206000200154815260200190815260200160002060040154828281518110610ed257610ed1612cba565b5b6020026020010181815250508080600101915050610e80565b5060058160045482805480602002602001604051908101604052809291908181526020018280548015610f3d57602002820191906000526020600020905b815481526020019060010190808311610f29575b5050505050925093509350935050909192565b60068181548110610f6057600080fd5b906000526020600020016000915054906101000a900473ffffffffffffffffffffffffffffffffffffffff1681565b60008054906101000a900473ffffffffffffffffffffffffffffffffffffffff1673ffffffffffffffffffffffffffffffffffffffff163373ffffffffffffffffffffffffffffffffffffffff161461101d576040517f08c379a0000000000000000000000000000000000000000000000000000000008152600401611014906128f8565b60405180910390fd5b6001600281111561103157611030611e70565b5b600060149054906101000a900460ff16600281111561105357611052611e70565b5b14611093576040517f08c379a000000000000000000000000000000000000000000000000000000000815260040161108a90612d35565b60405180910390fd5b6002600060146101000a81548160ff021916908360028111156110b9576110b8611e70565b5b02179055507f562cd572b2ba3b666cd989fc4ca98419ec81e75f04528df9d9d76fdb7807ee71426040516110ed9190611e55565b60405180910390a1565b60008054906101000a900473ffffffffffffffffffffffffffffffffffffffff1673ffffffffffffffffffffffffffffffffffffffff163373ffffffffffffffffffffffffffffffffffffffff1614611185576040517f08c379a000000000000000000000000000000000000000000000000000000000815260040161117c906128f8565b60405180910390fd5b6000600281111561119957611198611e70565b5b600060149054906101000a900460ff1660028111156111bb576111ba611e70565b5b146111fb576040517f08c379a00000000000000000000000000000000000000000000000000000000081526004016111f290612964565b60405180910390fd5b600060035411611240576040517f08c379a000000000000000000000000000000000000000000000000000000000815260040161123790612da1565b60405180910390fd5b6001600060146101000a81548160ff0219169083600281111561126657611265611e70565b5b02179055507f159eee87222a0489c529f2153c26ad65d718f2cc33ebaa8d399d1dd5b39facaa4260405161129a9190611e55565b60405180910390a1565b6000806060806000600260003373ffffffffffffffffffffffffffffffffffffffff1673ffffffffffffffffffffffffffffffffffffffff16815260200190815260200160002060000160009054906101000a900460ff1661133b576040517f08c379a000000000000000000000000000000000000000000000000000000000815260040161133290612671565b60405180910390fd5b6000600260003373ffffffffffffffffffffffffffffffffffffffff1673ffffffffffffffffffffffffffffffffffffffff1681526020019081526020016000206040518060800160405290816000820160009054906101000a900460ff161515151581526020016000820160019054906101000a900460ff161515151581526020016001820154815260200160028201548152505090508060200151611413576000806000604051806020016040528060008152509060405180602001604052806000815250909550955095509550955050611626565b600060016000836040015181526020019081526020016000206040518060a0016040529081600082015481526020016001820180546114519061287b565b80601f016020809104026020016040519081016040528092919081815260200182805461147d9061287b565b80156114ca5780601f1061149f576101008083540402835291602001916114ca565b820191906000526020600020905b8154815290600101906020018083116114ad57829003601f168201915b505050505081526020016002820180546114e39061287b565b80601f016020809104026020016040519081016040528092919081815260200182805461150f9061287b565b801561155c5780601f106115315761010080835404028352916020019161155c565b820191906000526020600020905b81548152906001019060200180831161153f57829003601f168201915b505050505081526020016003820180546115759061287b565b80601f01602080910402602001604051908101604052809291908181526020018280546115a19061287b565b80156115ee5780601f106115c3576101008083540402835291602001916115ee565b820191906000526020600020905b8154815290600101906020018083116115d157829003601f168201915b505050505081526020016004820154815250509050600181600001518260200151836040015185606001519650965096509650965050505b9091929394565b60008054906101000a900473ffffffffffffffffffffffffffffffffffffffff1681565b611659611d74565b60028081111561166c5761166b611e70565b5b600060149054906101000a900460ff16600281111561168e5761168d611e70565b5b146116ce576040517f08c379a00000000000000000000000000000000000000000000000000000000081526004016116c590612c9a565b60405180910390fd5b6000806000600190505b600354811161172f57826001600083815260200190815260200160002060040154111561171c57600160008281526020019081526020016000206004015492508091505b808061172790612804565b9150506116d8565b50600160008281526020019081526020016000206040518060a0016040529081600082015481526020016001820180546117689061287b565b80601f01602080910402602001604051908101604052809291908181526020018280546117949061287b565b80156117e15780601f106117b6576101008083540402835291602001916117e1565b820191906000526020600020905b8154815290600101906020018083116117c457829003601f168201915b505050505081526020016002820180546117fa9061287b565b80601f01602080910402602001604051908101604052809291908181526020018280546118269061287b565b80156118735780601f1061184857610100808354040283529160200191611873565b820191906000526020600020905b81548152906001019060200180831161185657829003601f168201915b5050505050815260200160038201805461188c9061287b565b80601f01602080910402602001604051908101604052809291908181526020018280546118b89061287b565b80156119055780601f106118da57610100808354040283529160200191611905565b820191906000526020600020905b8154815290600101906020018083116118e857829003601f168201915b505050505081526020016004820154815250509250505090565b611927611da3565b600260008373ffffffffffffffffffffffffffffffffffffffff1673ffffffffffffffffffffffffffffffffffffffff1681526020019081526020016000206040518060800160405290816000820160009054906101000a900460ff161515151581526020016000820160019054906101000a900460ff16151515158152602001600182015481526020016002820154815250509050919050565b60026020528060005260406000206000915090508060000160009054906101000a900460ff16908060000160019054906101000a900460ff16908060010154908060020154905084565b60035481565b60008054906101000a900473ffffffffffffffffffffffffffffffffffffffff1673ffffffffffffffffffffffffffffffffffffffff163373ffffffffffffffffffffffffffffffffffffffff1614611aa0576040517f08c379a0000000000000000000000000000000000000000000000000000000008152600401611a97906128f8565b60405180910390fd5b600073ffffffffffffffffffffffffffffffffffffffff168173ffffffffffffffffffffffffffffffffffffffff1603611b0f576040517f08c379a0000000000000000000000000000000000000000000000000000000008152600401611b0690612e0d565b60405180910390fd5b806000806101000a81548173ffffffffffffffffffffffffffffffffffffffff021916908373ffffffffffffffffffffffffffffffffffffffff16021790555050565b60008054906101000a900473ffffffffffffffffffffffffffffffffffffffff1673ffffffffffffffffffffffffffffffffffffffff163373ffffffffffffffffffffffffffffffffffffffff1614611be0576040517f08c379a0000000000000000000000000000000000000000000000000000000008152600401611bd7906128f8565b60405180910390fd5b600260008273ffffffffffffffffffffffffffffffffffffffff1673ffffffffffffffffffffffffffffffffffffffff16815260200190815260200160002060000160009054906101000a900460ff1615611c70576040517f08c379a0000000000000000000000000000000000000000000000000000000008152600401611c6790612e79565b60405180910390fd5b6001600260008373ffffffffffffffffffffffffffffffffffffffff1673ffffffffffffffffffffffffffffffffffffffff16815260200190815260200160002060000160006101000a81548160ff0219169083151502179055506006819080600181540180825580915050600190039060005260206000200160009091909190916101000a81548173ffffffffffffffffffffffffffffffffffffffff021916908373ffffffffffffffffffffffffffffffffffffffff1602179055508073ffffffffffffffffffffffffffffffffffffffff167f0ca65a9f1f88bd7257ac852d1062853358f81cdc56f9634dcbeed6090f8dfb4360405160405180910390a250565b6040518060a0016040528060008152602001606081526020016060815260200160608152602001600081525090565b604051806080016040528060001515815260200160001515815260200160008152602001600081525090565b6000604051905090565b600080fd5b600080fd5b6000819050919050565b611df681611de3565b8114611e0157600080fd5b50565b600081359050611e1381611ded565b92915050565b600060208284031215611e2f57611e2e611dd9565b5b6000611e3d84828501611e04565b91505092915050565b611e4f81611de3565b82525050565b6000602082019050611e6a6000830184611e46565b92915050565b7f4e487b7100000000000000000000000000000000000000000000000000000000600052602160045260246000fd5b60038110611eb057611eaf611e70565b5b50565b6000819050611ec182611e9f565b919050565b6000611ed182611eb3565b9050919050565b611ee181611ec6565b82525050565b6000608082019050611efc6000830187611ed8565b611f096020830186611e46565b611f166040830185611e46565b611f236060830184611e46565b95945050505050565b6000602082019050611f416000830184611ed8565b92915050565b600081519050919050565b600082825260208201905092915050565b60005b83811015611f81578082015181840152602081019050611f66565b60008484015250505050565b6000601f19601f8301169050919050565b6000611fa982611f47565b611fb38185611f52565b9350611fc3818560208601611f63565b611fcc81611f8d565b840191505092915050565b600060a082019050611fec6000830188611e46565b8181036020830152611ffe8187611f9e565b905081810360408301526120128186611f9e565b905081810360608301526120268185611f9e565b90506120356080830184611e46565b9695505050505050565b61204881611de3565b82525050565b600082825260208201905092915050565b600061206a82611f47565b612074818561204e565b9350612084818560208601611f63565b61208d81611f8d565b840191505092915050565b600060a0830160008301516120b0600086018261203f565b50602083015184820360208601526120c8828261205f565b915050604083015184820360408601526120e2828261205f565b915050606083015184820360608601526120fc828261205f565b9150506080830151612111608086018261203f565b508091505092915050565b600060208201905081810360008301526121368184612098565b905092915050565b600080fd5b600080fd5b7f4e487b7100000000000000000000000000000000000000000000000000000000600052604160045260246000fd5b61218082611f8d565b810181811067ffffffffffffffff8211171561219f5761219e612148565b5b80604052505050565b60006121b2611dcf565b90506121be8282612177565b919050565b600067ffffffffffffffff8211156121de576121dd612148565b5b6121e782611f8d565b9050602081019050919050565b82818337600083830152505050565b6000612216612211846121c3565b6121a8565b90508281526020810184848401111561223257612231612143565b5b61223d8482856121f4565b509392505050565b600082601f83011261225a5761225961213e565b5b813561226a848260208601612203565b91505092915050565b60008060006060848603121561228c5761228b611dd9565b5b600084013567ffffffffffffffff8111156122aa576122a9611dde565b5b6122b686828701612245565b935050602084013567ffffffffffffffff8111156122d7576122d6611dde565b5b6122e386828701612245565b925050604084013567ffffffffffffffff81111561230457612303611dde565b5b61231086828701612245565b9150509250925092565b600081519050919050565b600082825260208201905092915050565b6000819050602082019050919050565b6000612352838361203f565b60208301905092915050565b6000602082019050919050565b60006123768261231a565b6123808185612325565b935061238b83612336565b8060005b838110156123bc5781516123a38882612346565b97506123ae8361235e565b92505060018101905061238f565b5085935050505092915050565b600060208201905081810360008301526123e3818461236b565b905092915050565b60006060820190508181036000830152612405818661236b565b90508181036020830152612419818561236b565b90506124286040830184611e46565b949350505050565b600073ffffffffffffffffffffffffffffffffffffffff82169050919050565b600061245b82612430565b9050919050565b61246b81612450565b82525050565b60006020820190506124866000830184612462565b92915050565b60008115159050919050565b6124a18161248c565b82525050565b600060a0820190506124bc6000830188612498565b6124c96020830187611e46565b81810360408301526124db8186611f9e565b905081810360608301526124ef8185611f9e565b90506124fe6080830184611e46565b9695505050505050565b61251181612450565b811461251c57600080fd5b50565b60008135905061252e81612508565b92915050565b60006020828403121561254a57612549611dd9565b5b60006125588482850161251f565b91505092915050565b61256a8161248c565b82525050565b6080820160008201516125866000850182612561565b5060208201516125996020850182612561565b5060408201516125ac604085018261203f565b5060608201516125bf606085018261203f565b50505050565b60006080820190506125da6000830184612570565b92915050565b60006080820190506125f56000830187612498565b6126026020830186612498565b61260f6040830185611e46565b61261c6060830184611e46565b95945050505050565b7f566f746572206e6f7420617574686f72697a6564000000000000000000000000600082015250565b600061265b601483611f52565b915061266682612625565b602082019050919050565b6000602082019050818103600083015261268a8161264e565b9050919050565b7f456c656374696f6e206e6f742061637469766500000000000000000000000000600082015250565b60006126c7601383611f52565b91506126d282612691565b602082019050919050565b600060208201905081810360008301526126f6816126ba565b9050919050565b7f416c726561647920766f74656400000000000000000000000000000000000000600082015250565b6000612733600d83611f52565b915061273e826126fd565b602082019050919050565b6000602082019050818103600083015261276281612726565b9050919050565b7f496e76616c69642063616e646964617465000000000000000000000000000000600082015250565b600061279f601183611f52565b91506127aa82612769565b602082019050919050565b600060208201905081810360008301526127ce81612792565b9050919050565b7f4e487b7100000000000000000000000000000000000000000000000000000000600052601160045260246000fd5b600061280f82611de3565b91507fffffffffffffffffffffffffffffffffffffffffffffffffffffffffffffffff8203612841576128406127d5565b5b600182019050919050565b7f4e487b7100000000000000000000000000000000000000000000000000000000600052602260045260246000fd5b6000600282049050600182168061289357607f821691505b6020821081036128a6576128a561284c565b5b50919050565b7f4f6e6c79206f776e657200000000000000000000000000000000000000000000600082015250565b60006128e2600a83611f52565b91506128ed826128ac565b602082019050919050565b60006020820190508181036000830152612911816128d5565b9050919050565b7f416c726561647920737461727465640000000000000000000000000000000000600082015250565b600061294e600f83611f52565b915061295982612918565b602082019050919050565b6000602082019050818103600083015261297d81612941565b9050919050565b60008190508160005260206000209050919050565b60006020601f8301049050919050565b600082821b905092915050565b6000600883026129e67fffffffffffffffffffffffffffffffffffffffffffffffffffffffffffffffff826129a9565b6129f086836129a9565b95508019841693508086168417925050509392505050565b6000819050919050565b6000612a2d612a28612a2384611de3565b612a08565b611de3565b9050919050565b6000819050919050565b612a4783612a12565b612a5b612a5382612a34565b8484546129b6565b825550505050565b600090565b612a70612a63565b612a7b818484612a3e565b505050565b5b81811015612a9f57612a94600082612a68565b600181019050612a81565b5050565b601f821115612ae457612ab581612984565b612abe84612999565b81016020851015612acd578190505b612ae1612ad985612999565b830182612a80565b50505b505050565b600082821c905092915050565b6000612b0760001984600802612ae9565b1980831691505092915050565b6000612b208383612af6565b9150826002028217905092915050565b612b3982611f47565b67ffffffffffffffff811115612b5257612b51612148565b5b612b5c825461287b565b612b67828285612aa3565b600060209050601f831160018114612b9a5760008415612b88578287015190505b612b928582612b14565b865550612bfa565b601f198416612ba886612984565b60005b82811015612bd057848901518255600182019150602085019450602081019050612bab565b86831015612bed5784890151612be9601f891682612af6565b8355505b6001600288020188555050505b505050505050565b60006060820190508181036000830152612c1c8186611f9e565b90508181036020830152612c308185611f9e565b90508181036040830152612c448184611f9e565b9050949350505050565b7f456c656374696f6e206e6f7420656e6465640000000000000000000000000000600082015250565b6000612c84601283611f52565b9150612c8f82612c4e565b602082019050919050565b60006020820190508181036000830152612cb381612c77565b9050919050565b7f4e487b7100000000000000000000000000000000000000000000000000000000600052603260045260246000fd5b7f4e6f742061637469766500000000000000000000000000000000000000000000600082015250565b6000612d1f600a83611f52565b9150612d2a82612ce9565b602082019050919050565b60006020820190508181036000830152612d4e81612d12565b9050919050565b7f4e6f2063616e6469646174657300000000000000000000000000000000000000600082015250565b6000612d8b600d83611f52565b9150612d9682612d55565b602082019050919050565b60006020820190508181036000830152612dba81612d7e565b9050919050565b7f496e76616c696400000000000000000000000000000000000000000000000000600082015250565b6000612df7600783611f52565b9150612e0282612dc1565b602082019050919050565b60006020820190508181036000830152612e2681612dea565b9050919050565b7f416c726561647920617574686f72697a65640000000000000000000000000000600082015250565b6000612e63601283611f52565b9150612e6e82612e2d565b602082019050919050565b60006020820190508181036000830152612e9281612e56565b905091905056fea26469706673582212203c581f7b0e069113b77a45cb263deb8d0914c236ac2c7d8bf3e9ee4fbf5a767064736f6c634300081c0033",
  "linkReferences": {},
  "deployedLinkReferences": {}
}